{
  "_format": "hh-sol-artifact-1",
  "contractName": "Vault",
  "sourceName": "contracts/Vault.sol",
  "abi": [
    {
      "inputs": [
        {
          "internalType": "address",
          "name": "_token",
          "type": "address"
        }
      ],
      "stateMutability": "nonpayable",
      "type": "constructor"
    },
    {
      "inputs": [
        {
          "internalType": "uint256",
          "name": "amount",
          "type": "uint256"
        }
      ],
      "name": "deposit",
      "outputs": [],
      "stateMutability": "nonpayable",
      "type": "function"
    },
    {
      "inputs": [
        {
          "internalType": "address",
          "name": "",
          "type": "address"
        }
      ],
      "name": "deposited",
      "outputs": [
        {
          "internalType": "uint256",
          "name": "",
          "type": "uint256"
        }
      ],
      "stateMutability": "view",
      "type": "function"
    },
    {
      "inputs": [
        {
          "internalType": "address",
          "name": "account",
          "type": "address"
        }
      ],
      "name": "getDeposit",
      "outputs": [
        {
          "internalType": "uint256",
          "name": "",
          "type": "uint256"
        }
      ],
      "stateMutability": "view",
      "type": "function"
    },
    {
      "inputs": [],
      "name": "token",
      "outputs": [
        {
          "internalType": "address",
          "name": "",
          "type": "address"
        }
      ],
      "stateMutability": "view",
      "type": "function"
    },
    {
      "inputs": [],
      "name": "withdraw",
      "outputs": [],
      "stateMutability": "nonpayable",
      "type": "function"
    }
  ],
  "bytecode": "0x60a060405234801561001057600080fd5b50604051610e02380380610e0283398181016040528101906100329190610084565b8073ffffffffffffffffffffffffffffffffffffffff1660808173ffffffffffffffffffffffffffffffffffffffff1660601b81525050506100f6565b60008151905061007e816100df565b92915050565b60006020828403121561009657600080fd5b60006100a48482850161006f565b91505092915050565b60006100b8826100bf565b9050919050565b600073ffffffffffffffffffffffffffffffffffffffff82169050919050565b6100e8816100ad565b81146100f357600080fd5b50565b60805160601c610cd9610129600039600081816101640152818161028e01528181610424015261062b0152610cd96000f3fe608060405234801561001057600080fd5b50600436106100575760003560e01c80633ccfd60b1461005c578063b6b55f2514610066578063cb13cddb14610082578063e1254fba146100b2578063fc0c546a146100e2575b600080fd5b610064610100565b005b610080600480360381019061007b9190610848565b6103fe565b005b61009c600480360381019061009791906107f6565b610568565b6040516100a99190610a53565b60405180910390f35b6100cc60048036038101906100c791906107f6565b610580565b6040516100d99190610a53565b60405180910390f35b6100ea610629565b6040516100f7919061090e565b60405180910390f35b610162604051806060016040528060268152602001610c7e6026913933306000803373ffffffffffffffffffffffffffffffffffffffff1673ffffffffffffffffffffffffffffffffffffffff1681526020019081526020016000205461064d565b7f000000000000000000000000000000000000000000000000000000000000000073ffffffffffffffffffffffffffffffffffffffff1663095ea7b3336000803373ffffffffffffffffffffffffffffffffffffffff1673ffffffffffffffffffffffffffffffffffffffff168152602001908152602001600020546040518363ffffffff1660e01b81526004016101fb929190610960565b602060405180830381600087803b15801561021557600080fd5b505af1158015610229573d6000803e3d6000fd5b505050506040513d601f19601f8201168201806040525081019061024d919061081f565b61028c576040517f08c379a000000000000000000000000000000000000000000000000000000000815260040161028390610a13565b60405180910390fd5b7f000000000000000000000000000000000000000000000000000000000000000073ffffffffffffffffffffffffffffffffffffffff166323b872dd30336000803373ffffffffffffffffffffffffffffffffffffffff1673ffffffffffffffffffffffffffffffffffffffff168152602001908152602001600020546040518463ffffffff1660e01b815260040161032793929190610929565b602060405180830381600087803b15801561034157600080fd5b505af1158015610355573d6000803e3d6000fd5b505050506040513d601f19601f82011682018060405250810190610379919061081f565b6103b8576040517f08c379a00000000000000000000000000000000000000000000000000000000081526004016103af90610a33565b60405180910390fd5b60008060003373ffffffffffffffffffffffffffffffffffffffff1673ffffffffffffffffffffffffffffffffffffffff16815260200190815260200160002081905550565b610422604051806060016040528060258152602001610c596025913933308461064d565b7f000000000000000000000000000000000000000000000000000000000000000073ffffffffffffffffffffffffffffffffffffffff166323b872dd3330846040518463ffffffff1660e01b815260040161047f93929190610929565b602060405180830381600087803b15801561049957600080fd5b505af11580156104ad573d6000803e3d6000fd5b505050506040513d601f19601f820116820180604052508101906104d1919061081f565b610510576040517f08c379a000000000000000000000000000000000000000000000000000000000815260040161050790610a33565b60405180910390fd5b806000803373ffffffffffffffffffffffffffffffffffffffff1673ffffffffffffffffffffffffffffffffffffffff168152602001908152602001600020600082825461055e9190610a8a565b9250508190555050565b60006020528060005260406000206000915090505481565b60006105e3604051806060016040528060268152602001610c3360269139836000808673ffffffffffffffffffffffffffffffffffffffff1673ffffffffffffffffffffffffffffffffffffffff168152602001908152602001600020546106ef565b6000808373ffffffffffffffffffffffffffffffffffffffff1673ffffffffffffffffffffffffffffffffffffffff168152602001908152602001600020549050919050565b7f000000000000000000000000000000000000000000000000000000000000000081565b6106e9848484846040516024016106679493929190610989565b6040516020818303038152906040527f6eb7943d000000000000000000000000000000000000000000000000000000007bffffffffffffffffffffffffffffffffffffffffffffffffffffffff19166020820180517bffffffffffffffffffffffffffffffffffffffffffffffffffffffff838183161783525050505061078e565b50505050565b610789838383604051602401610707939291906109d5565b6040516020818303038152906040527f07c81217000000000000000000000000000000000000000000000000000000007bffffffffffffffffffffffffffffffffffffffffffffffffffffffff19166020820180517bffffffffffffffffffffffffffffffffffffffffffffffffffffffff838183161783525050505061078e565b505050565b60008151905060006a636f6e736f6c652e6c6f679050602083016000808483855afa5050505050565b6000813590506107c681610bed565b92915050565b6000815190506107db81610c04565b92915050565b6000813590506107f081610c1b565b92915050565b60006020828403121561080857600080fd5b6000610816848285016107b7565b91505092915050565b60006020828403121561083157600080fd5b600061083f848285016107cc565b91505092915050565b60006020828403121561085a57600080fd5b6000610868848285016107e1565b91505092915050565b61087a81610ae0565b82525050565b600061088b82610a6e565b6108958185610a79565b93506108a5818560208601610b28565b6108ae81610b8a565b840191505092915050565b60006108c6600d83610a79565b91506108d182610b9b565b602082019050919050565b60006108e9601383610a79565b91506108f482610bc4565b602082019050919050565b61090881610b1e565b82525050565b60006020820190506109236000830184610871565b92915050565b600060608201905061093e6000830186610871565b61094b6020830185610871565b61095860408301846108ff565b949350505050565b60006040820190506109756000830185610871565b61098260208301846108ff565b9392505050565b600060808201905081810360008301526109a38187610880565b90506109b26020830186610871565b6109bf6040830185610871565b6109cc60608301846108ff565b95945050505050565b600060608201905081810360008301526109ef8186610880565b90506109fe6020830185610871565b610a0b60408301846108ff565b949350505050565b60006020820190508181036000830152610a2c816108b9565b9050919050565b60006020820190508181036000830152610a4c816108dc565b9050919050565b6000602082019050610a6860008301846108ff565b92915050565b600081519050919050565b600082825260208201905092915050565b6000610a9582610b1e565b9150610aa083610b1e565b9250827fffffffffffffffffffffffffffffffffffffffffffffffffffffffffffffffff03821115610ad557610ad4610b5b565b5b828201905092915050565b6000610aeb82610afe565b9050919050565b60008115159050919050565b600073ffffffffffffffffffffffffffffffffffffffff82169050919050565b6000819050919050565b60005b83811015610b46578082015181840152602081019050610b2b565b83811115610b55576000848401525b50505050565b7f4e487b7100000000000000000000000000000000000000000000000000000000600052601160045260246000fd5b6000601f19601f8301169050919050565b7f417070726f7665206572726f7200000000000000000000000000000000000000600082015250565b7f5472616e736665722066726f6d206572726f7200000000000000000000000000600082015250565b610bf681610ae0565b8114610c0157600080fd5b50565b610c0d81610af2565b8114610c1857600080fd5b50565b610c2481610b1e565b8114610c2f57600080fd5b5056fe5b6765744465706f7369745d6163636f756e743a2025732c206465706f73697465643a2025735b6465706f7369745d66726f6d3a2025732c20746f3a2025732c20616d6f756e743a2025735b77697468647261775d66726f6d3a2025732c20746f3a2025732c20616d6f756e743a202573a264697066735822122084c6b0d8ee82444dbd2264dcdbc16e801dd0828d613732876ad52ab87497110f64736f6c63430008040033",
  "linkReferences": {},
  "deployedLinkReferences": {}
}