{
  "_format": "hh-sol-artifact-1",
  "contractName": "MyERC721",
  "sourceName": "contracts/MyERC721.sol",
  "abi": [
    {
      "inputs": [],
      "stateMutability": "nonpayable",
      "type": "constructor"
    },
    {
      "anonymous": false,
      "inputs": [
        {
          "indexed": true,
          "internalType": "address",
          "name": "owner",
          "type": "address"
        },
        {
          "indexed": true,
          "internalType": "address",
          "name": "approved",
          "type": "address"
        },
        {
          "indexed": true,
          "internalType": "uint256",
          "name": "tokenId",
          "type": "uint256"
        }
      ],
      "name": "Approval",
      "type": "event"
    },
    {
      "anonymous": false,
      "inputs": [
        {
          "indexed": true,
          "internalType": "address",
          "name": "owner",
          "type": "address"
        },
        {
          "indexed": true,
          "internalType": "address",
          "name": "operator",
          "type": "address"
        },
        {
          "indexed": false,
          "internalType": "bool",
          "name": "approved",
          "type": "bool"
        }
      ],
      "name": "ApprovalForAll",
      "type": "event"
    },
    {
      "anonymous": false,
      "inputs": [
        {
          "indexed": true,
          "internalType": "address",
          "name": "from",
          "type": "address"
        },
        {
          "indexed": true,
          "internalType": "address",
          "name": "to",
          "type": "address"
        },
        {
          "indexed": true,
          "internalType": "uint256",
          "name": "tokenId",
          "type": "uint256"
        }
      ],
      "name": "Transfer",
      "type": "event"
    },
    {
      "inputs": [
        {
          "internalType": "address",
          "name": "to",
          "type": "address"
        },
        {
          "internalType": "uint256",
          "name": "tokenId",
          "type": "uint256"
        }
      ],
      "name": "approve",
      "outputs": [],
      "stateMutability": "nonpayable",
      "type": "function"
    },
    {
      "inputs": [
        {
          "internalType": "address",
          "name": "owner",
          "type": "address"
        }
      ],
      "name": "balanceOf",
      "outputs": [
        {
          "internalType": "uint256",
          "name": "",
          "type": "uint256"
        }
      ],
      "stateMutability": "view",
      "type": "function"
    },
    {
      "inputs": [
        {
          "internalType": "uint256",
          "name": "tokenId",
          "type": "uint256"
        }
      ],
      "name": "getApproved",
      "outputs": [
        {
          "internalType": "address",
          "name": "",
          "type": "address"
        }
      ],
      "stateMutability": "view",
      "type": "function"
    },
    {
      "inputs": [
        {
          "internalType": "address",
          "name": "owner",
          "type": "address"
        },
        {
          "internalType": "address",
          "name": "operator",
          "type": "address"
        }
      ],
      "name": "isApprovedForAll",
      "outputs": [
        {
          "internalType": "bool",
          "name": "",
          "type": "bool"
        }
      ],
      "stateMutability": "view",
      "type": "function"
    },
    {
      "inputs": [
        {
          "internalType": "address",
          "name": "to",
          "type": "address"
        },
        {
          "internalType": "uint256",
          "name": "tokenId",
          "type": "uint256"
        }
      ],
      "name": "mint",
      "outputs": [],
      "stateMutability": "nonpayable",
      "type": "function"
    },
    {
      "inputs": [],
      "name": "name",
      "outputs": [
        {
          "internalType": "string",
          "name": "",
          "type": "string"
        }
      ],
      "stateMutability": "view",
      "type": "function"
    },
    {
      "inputs": [
        {
          "internalType": "uint256",
          "name": "tokenId",
          "type": "uint256"
        }
      ],
      "name": "ownerOf",
      "outputs": [
        {
          "internalType": "address",
          "name": "",
          "type": "address"
        }
      ],
      "stateMutability": "view",
      "type": "function"
    },
    {
      "inputs": [
        {
          "internalType": "address",
          "name": "from",
          "type": "address"
        },
        {
          "internalType": "address",
          "name": "to",
          "type": "address"
        },
        {
          "internalType": "uint256",
          "name": "tokenId",
          "type": "uint256"
        }
      ],
      "name": "safeTransferFrom",
      "outputs": [],
      "stateMutability": "nonpayable",
      "type": "function"
    },
    {
      "inputs": [
        {
          "internalType": "address",
          "name": "from",
          "type": "address"
        },
        {
          "internalType": "address",
          "name": "to",
          "type": "address"
        },
        {
          "internalType": "uint256",
          "name": "tokenId",
          "type": "uint256"
        },
        {
          "internalType": "bytes",
          "name": "_data",
          "type": "bytes"
        }
      ],
      "name": "safeTransferFrom",
      "outputs": [],
      "stateMutability": "nonpayable",
      "type": "function"
    },
    {
      "inputs": [
        {
          "internalType": "address",
          "name": "operator",
          "type": "address"
        },
        {
          "internalType": "bool",
          "name": "approved",
          "type": "bool"
        }
      ],
      "name": "setApprovalForAll",
      "outputs": [],
      "stateMutability": "nonpayable",
      "type": "function"
    },
    {
      "inputs": [
        {
          "internalType": "bytes4",
          "name": "interfaceId",
          "type": "bytes4"
        }
      ],
      "name": "supportsInterface",
      "outputs": [
        {
          "internalType": "bool",
          "name": "",
          "type": "bool"
        }
      ],
      "stateMutability": "view",
      "type": "function"
    },
    {
      "inputs": [],
      "name": "symbol",
      "outputs": [
        {
          "internalType": "string",
          "name": "",
          "type": "string"
        }
      ],
      "stateMutability": "view",
      "type": "function"
    },
    {
      "inputs": [
        {
          "internalType": "uint256",
          "name": "tokenId",
          "type": "uint256"
        }
      ],
      "name": "tokenURI",
      "outputs": [
        {
          "internalType": "string",
          "name": "",
          "type": "string"
        }
      ],
      "stateMutability": "view",
      "type": "function"
    },
    {
      "inputs": [
        {
          "internalType": "address",
          "name": "from",
          "type": "address"
        },
        {
          "internalType": "address",
          "name": "to",
          "type": "address"
        },
        {
          "internalType": "uint256",
          "name": "tokenId",
          "type": "uint256"
        }
      ],
      "name": "transfer",
      "outputs": [],
      "stateMutability": "nonpayable",
      "type": "function"
    },
    {
      "inputs": [
        {
          "internalType": "address",
          "name": "from",
          "type": "address"
        },
        {
          "internalType": "address",
          "name": "to",
          "type": "address"
        },
        {
          "internalType": "uint256",
          "name": "tokenId",
          "type": "uint256"
        }
      ],
      "name": "transferFrom",
      "outputs": [],
      "stateMutability": "nonpayable",
      "type": "function"
    }
  ],
  "bytecode": "0x60806040523480156200001157600080fd5b506040518060400160405280600881526020017f4d794552433732310000000000000000000000000000000000000000000000008152506040518060400160405280600881526020017f4d79455243373231000000000000000000000000000000000000000000000000815250816000908051906020019062000096929190620000b8565b508060019080519060200190620000af929190620000b8565b505050620001cd565b828054620000c69062000168565b90600052602060002090601f016020900481019282620000ea576000855562000136565b82601f106200010557805160ff191683800117855562000136565b8280016001018555821562000136579182015b828111156200013557825182559160200191906001019062000118565b5b50905062000145919062000149565b5090565b5b80821115620001645760008160009055506001016200014a565b5090565b600060028204905060018216806200018157607f821691505b602082108114156200019857620001976200019e565b5b50919050565b7f4e487b7100000000000000000000000000000000000000000000000000000000600052602260045260246000fd5b6126f580620001dd6000396000f3fe608060405234801561001057600080fd5b50600436106100f55760003560e01c80636352211e11610097578063b88d4fde11610066578063b88d4fde14610282578063beabacc81461029e578063c87b56dd146102ba578063e985e9c5146102ea576100f5565b80636352211e146101e857806370a082311461021857806395d89b4114610248578063a22cb46514610266576100f5565b8063095ea7b3116100d3578063095ea7b31461017857806323b872dd1461019457806340c10f19146101b057806342842e0e146101cc576100f5565b806301ffc9a7146100fa57806306fdde031461012a578063081812fc14610148575b600080fd5b610114600480360381019061010f91906118f7565b61031a565b6040516101219190611cb7565b60405180910390f35b6101326103fc565b60405161013f9190611cd2565b60405180910390f35b610162600480360381019061015d9190611949565b61048e565b60405161016f9190611c50565b60405180910390f35b610192600480360381019061018d91906118bb565b610513565b005b6101ae60048036038101906101a991906117b5565b61062b565b005b6101ca60048036038101906101c591906118bb565b61068b565b005b6101e660048036038101906101e191906117b5565b610699565b005b61020260048036038101906101fd9190611949565b6106b9565b60405161020f9190611c50565b60405180910390f35b610232600480360381019061022d9190611750565b61076b565b60405161023f9190611eb4565b60405180910390f35b610250610823565b60405161025d9190611cd2565b60405180910390f35b610280600480360381019061027b919061187f565b6108b5565b005b61029c60048036038101906102979190611804565b6108cb565b005b6102b860048036038101906102b391906117b5565b61092d565b005b6102d460048036038101906102cf9190611949565b61093d565b6040516102e19190611cd2565b60405180910390f35b61030460048036038101906102ff9190611779565b6109e4565b6040516103119190611cb7565b60405180910390f35b60007f80ac58cd000000000000000000000000000000000000000000000000000000007bffffffffffffffffffffffffffffffffffffffffffffffffffffffff1916827bffffffffffffffffffffffffffffffffffffffffffffffffffffffff191614806103e557507f5b5e139f000000000000000000000000000000000000000000000000000000007bffffffffffffffffffffffffffffffffffffffffffffffffffffffff1916827bffffffffffffffffffffffffffffffffffffffffffffffffffffffff1916145b806103f557506103f482610a78565b5b9050919050565b60606000805461040b906120d9565b80601f0160208091040260200160405190810160405280929190818152602001828054610437906120d9565b80156104845780601f1061045957610100808354040283529160200191610484565b820191906000526020600020905b81548152906001019060200180831161046757829003601f168201915b5050505050905090565b600061049982610ae2565b6104d8576040517f08c379a00000000000000000000000000000000000000000000000000000000081526004016104cf90611e34565b60405180910390fd5b6004600083815260200190815260200160002060009054906101000a900473ffffffffffffffffffffffffffffffffffffffff169050919050565b600061051e826106b9565b90508073ffffffffffffffffffffffffffffffffffffffff168373ffffffffffffffffffffffffffffffffffffffff16141561058f576040517f08c379a000000000000000000000000000000000000000000000000000000000815260040161058690611e74565b60405180910390fd5b8073ffffffffffffffffffffffffffffffffffffffff166105ae610b4e565b73ffffffffffffffffffffffffffffffffffffffff1614806105dd57506105dc816105d7610b4e565b6109e4565b5b61061c576040517f08c379a000000000000000000000000000000000000000000000000000000000815260040161061390611db4565b60405180910390fd5b6106268383610b56565b505050565b61063c610636610b4e565b82610c0f565b61067b576040517f08c379a000000000000000000000000000000000000000000000000000000000815260040161067290611e94565b60405180910390fd5b610686838383610ced565b505050565b6106958282610f54565b5050565b6106b4838383604051806020016040528060008152506108cb565b505050565b6000806002600084815260200190815260200160002060009054906101000a900473ffffffffffffffffffffffffffffffffffffffff169050600073ffffffffffffffffffffffffffffffffffffffff168173ffffffffffffffffffffffffffffffffffffffff161415610762576040517f08c379a000000000000000000000000000000000000000000000000000000000815260040161075990611df4565b60405180910390fd5b80915050919050565b60008073ffffffffffffffffffffffffffffffffffffffff168273ffffffffffffffffffffffffffffffffffffffff1614156107dc576040517f08c379a00000000000000000000000000000000000000000000000000000000081526004016107d390611dd4565b60405180910390fd5b600360008373ffffffffffffffffffffffffffffffffffffffff1673ffffffffffffffffffffffffffffffffffffffff168152602001908152602001600020549050919050565b606060018054610832906120d9565b80601f016020809104026020016040519081016040528092919081815260200182805461085e906120d9565b80156108ab5780601f10610880576101008083540402835291602001916108ab565b820191906000526020600020905b81548152906001019060200180831161088e57829003601f168201915b5050505050905090565b6108c76108c0610b4e565b838361112e565b5050565b6108dc6108d6610b4e565b83610c0f565b61091b576040517f08c379a000000000000000000000000000000000000000000000000000000000815260040161091290611e94565b60405180910390fd5b6109278484848461129b565b50505050565b610938838383610ced565b505050565b606061094882610ae2565b610987576040517f08c379a000000000000000000000000000000000000000000000000000000000815260040161097e90611e54565b60405180910390fd5b60006109916112f7565b905060008151116109b157604051806020016040528060008152506109dc565b806109bb8461130e565b6040516020016109cc929190611c2c565b6040516020818303038152906040525b915050919050565b6000600560008473ffffffffffffffffffffffffffffffffffffffff1673ffffffffffffffffffffffffffffffffffffffff16815260200190815260200160002060008373ffffffffffffffffffffffffffffffffffffffff1673ffffffffffffffffffffffffffffffffffffffff16815260200190815260200160002060009054906101000a900460ff16905092915050565b60007f01ffc9a7000000000000000000000000000000000000000000000000000000007bffffffffffffffffffffffffffffffffffffffffffffffffffffffff1916827bffffffffffffffffffffffffffffffffffffffffffffffffffffffff1916149050919050565b60008073ffffffffffffffffffffffffffffffffffffffff166002600084815260200190815260200160002060009054906101000a900473ffffffffffffffffffffffffffffffffffffffff1673ffffffffffffffffffffffffffffffffffffffff1614159050919050565b600033905090565b816004600083815260200190815260200160002060006101000a81548173ffffffffffffffffffffffffffffffffffffffff021916908373ffffffffffffffffffffffffffffffffffffffff160217905550808273ffffffffffffffffffffffffffffffffffffffff16610bc9836106b9565b73ffffffffffffffffffffffffffffffffffffffff167f8c5be1e5ebec7d5bd14f71427d1e84f3dd0314c0f7b2291e5b200ac8c7c3b92560405160405180910390a45050565b6000610c1a82610ae2565b610c59576040517f08c379a0000000000000000000000000000000000000000000000000000000008152600401610c5090611d94565b60405180910390fd5b6000610c64836106b9565b90508073ffffffffffffffffffffffffffffffffffffffff168473ffffffffffffffffffffffffffffffffffffffff161480610cd357508373ffffffffffffffffffffffffffffffffffffffff16610cbb8461048e565b73ffffffffffffffffffffffffffffffffffffffff16145b80610ce45750610ce381856109e4565b5b91505092915050565b8273ffffffffffffffffffffffffffffffffffffffff16610d0d826106b9565b73ffffffffffffffffffffffffffffffffffffffff1614610d63576040517f08c379a0000000000000000000000000000000000000000000000000000000008152600401610d5a90611d14565b60405180910390fd5b600073ffffffffffffffffffffffffffffffffffffffff168273ffffffffffffffffffffffffffffffffffffffff161415610dd3576040517f08c379a0000000000000000000000000000000000000000000000000000000008152600401610dca90611d54565b60405180910390fd5b610dde8383836114bb565b610de9600082610b56565b6001600360008573ffffffffffffffffffffffffffffffffffffffff1673ffffffffffffffffffffffffffffffffffffffff1681526020019081526020016000206000828254610e399190611fef565b925050819055506001600360008473ffffffffffffffffffffffffffffffffffffffff1673ffffffffffffffffffffffffffffffffffffffff1681526020019081526020016000206000828254610e909190611f68565b92505081905550816002600083815260200190815260200160002060006101000a81548173ffffffffffffffffffffffffffffffffffffffff021916908373ffffffffffffffffffffffffffffffffffffffff160217905550808273ffffffffffffffffffffffffffffffffffffffff168473ffffffffffffffffffffffffffffffffffffffff167fddf252ad1be2c89b69c2b068fc378daa952ba7f163c4a11628f55a4df523b3ef60405160405180910390a4610f4f8383836114c0565b505050565b600073ffffffffffffffffffffffffffffffffffffffff168273ffffffffffffffffffffffffffffffffffffffff161415610fc4576040517f08c379a0000000000000000000000000000000000000000000000000000000008152600401610fbb90611e14565b60405180910390fd5b610fcd81610ae2565b1561100d576040517f08c379a000000000000000000000000000000000000000000000000000000000815260040161100490611d34565b60405180910390fd5b611019600083836114bb565b6001600360008473ffffffffffffffffffffffffffffffffffffffff1673ffffffffffffffffffffffffffffffffffffffff16815260200190815260200160002060008282546110699190611f68565b92505081905550816002600083815260200190815260200160002060006101000a81548173ffffffffffffffffffffffffffffffffffffffff021916908373ffffffffffffffffffffffffffffffffffffffff160217905550808273ffffffffffffffffffffffffffffffffffffffff16600073ffffffffffffffffffffffffffffffffffffffff167fddf252ad1be2c89b69c2b068fc378daa952ba7f163c4a11628f55a4df523b3ef60405160405180910390a461112a600083836114c0565b5050565b8173ffffffffffffffffffffffffffffffffffffffff168373ffffffffffffffffffffffffffffffffffffffff16141561119d576040517f08c379a000000000000000000000000000000000000000000000000000000000815260040161119490611d74565b60405180910390fd5b80600560008573ffffffffffffffffffffffffffffffffffffffff1673ffffffffffffffffffffffffffffffffffffffff16815260200190815260200160002060008473ffffffffffffffffffffffffffffffffffffffff1673ffffffffffffffffffffffffffffffffffffffff16815260200190815260200160002060006101000a81548160ff0219169083151502179055508173ffffffffffffffffffffffffffffffffffffffff168373ffffffffffffffffffffffffffffffffffffffff167f17307eab39ab6107e8899845ad3d59bd9653f200f220920489ca2b5937696c318360405161128e9190611cb7565b60405180910390a3505050565b6112a6848484610ced565b6112b2848484846114c5565b6112f1576040517f08c379a00000000000000000000000000000000000000000000000000000000081526004016112e890611cf4565b60405180910390fd5b50505050565b606060405180602001604052806000815250905090565b60606000821415611356576040518060400160405280600181526020017f300000000000000000000000000000000000000000000000000000000000000081525090506114b6565b600082905060005b600082146113885780806113719061213c565b915050600a826113819190611fbe565b915061135e565b60008167ffffffffffffffff8111156113ca577f4e487b7100000000000000000000000000000000000000000000000000000000600052604160045260246000fd5b6040519080825280601f01601f1916602001820160405280156113fc5781602001600182028036833780820191505090505b5090505b600085146114af576001826114159190611fef565b9150600a856114249190612185565b60306114309190611f68565b60f81b81838151811061146c577f4e487b7100000000000000000000000000000000000000000000000000000000600052603260045260246000fd5b60200101907effffffffffffffffffffffffffffffffffffffffffffffffffffffffffffff1916908160001a905350600a856114a89190611fbe565b9450611400565b8093505050505b919050565b505050565b505050565b60006114e68473ffffffffffffffffffffffffffffffffffffffff1661165c565b1561164f578373ffffffffffffffffffffffffffffffffffffffff1663150b7a0261150f610b4e565b8786866040518563ffffffff1660e01b81526004016115319493929190611c6b565b602060405180830381600087803b15801561154b57600080fd5b505af192505050801561157c57506040513d601f19601f820116820180604052508101906115799190611920565b60015b6115ff573d80600081146115ac576040519150601f19603f3d011682016040523d82523d6000602084013e6115b1565b606091505b506000815114156115f7576040517f08c379a00000000000000000000000000000000000000000000000000000000081526004016115ee90611cf4565b60405180910390fd5b805181602001fd5b63150b7a0260e01b7bffffffffffffffffffffffffffffffffffffffffffffffffffffffff1916817bffffffffffffffffffffffffffffffffffffffffffffffffffffffff191614915050611654565b600190505b949350505050565b6000808273ffffffffffffffffffffffffffffffffffffffff163b119050919050565b600061169261168d84611ef4565b611ecf565b9050828152602081018484840111156116aa57600080fd5b6116b5848285612097565b509392505050565b6000813590506116cc81612663565b92915050565b6000813590506116e18161267a565b92915050565b6000813590506116f681612691565b92915050565b60008151905061170b81612691565b92915050565b600082601f83011261172257600080fd5b813561173284826020860161167f565b91505092915050565b60008135905061174a816126a8565b92915050565b60006020828403121561176257600080fd5b6000611770848285016116bd565b91505092915050565b6000806040838503121561178c57600080fd5b600061179a858286016116bd565b92505060206117ab858286016116bd565b9150509250929050565b6000806000606084860312156117ca57600080fd5b60006117d8868287016116bd565b93505060206117e9868287016116bd565b92505060406117fa8682870161173b565b9150509250925092565b6000806000806080858703121561181a57600080fd5b6000611828878288016116bd565b9450506020611839878288016116bd565b935050604061184a8782880161173b565b925050606085013567ffffffffffffffff81111561186757600080fd5b61187387828801611711565b91505092959194509250565b6000806040838503121561189257600080fd5b60006118a0858286016116bd565b92505060206118b1858286016116d2565b9150509250929050565b600080604083850312156118ce57600080fd5b60006118dc858286016116bd565b92505060206118ed8582860161173b565b9150509250929050565b60006020828403121561190957600080fd5b6000611917848285016116e7565b91505092915050565b60006020828403121561193257600080fd5b6000611940848285016116fc565b91505092915050565b60006020828403121561195b57600080fd5b60006119698482850161173b565b91505092915050565b61197b81612023565b82525050565b61198a81612035565b82525050565b600061199b82611f25565b6119a58185611f3b565b93506119b58185602086016120a6565b6119be81612272565b840191505092915050565b60006119d482611f30565b6119de8185611f4c565b93506119ee8185602086016120a6565b6119f781612272565b840191505092915050565b6000611a0d82611f30565b611a178185611f5d565b9350611a278185602086016120a6565b80840191505092915050565b6000611a40603283611f4c565b9150611a4b82612283565b604082019050919050565b6000611a63602583611f4c565b9150611a6e826122d2565b604082019050919050565b6000611a86601c83611f4c565b9150611a9182612321565b602082019050919050565b6000611aa9602483611f4c565b9150611ab48261234a565b604082019050919050565b6000611acc601983611f4c565b9150611ad782612399565b602082019050919050565b6000611aef602c83611f4c565b9150611afa826123c2565b604082019050919050565b6000611b12603883611f4c565b9150611b1d82612411565b604082019050919050565b6000611b35602a83611f4c565b9150611b4082612460565b604082019050919050565b6000611b58602983611f4c565b9150611b63826124af565b604082019050919050565b6000611b7b602083611f4c565b9150611b86826124fe565b602082019050919050565b6000611b9e602c83611f4c565b9150611ba982612527565b604082019050919050565b6000611bc1602f83611f4c565b9150611bcc82612576565b604082019050919050565b6000611be4602183611f4c565b9150611bef826125c5565b604082019050919050565b6000611c07603183611f4c565b9150611c1282612614565b604082019050919050565b611c268161208d565b82525050565b6000611c388285611a02565b9150611c448284611a02565b91508190509392505050565b6000602082019050611c656000830184611972565b92915050565b6000608082019050611c806000830187611972565b611c8d6020830186611972565b611c9a6040830185611c1d565b8181036060830152611cac8184611990565b905095945050505050565b6000602082019050611ccc6000830184611981565b92915050565b60006020820190508181036000830152611cec81846119c9565b905092915050565b60006020820190508181036000830152611d0d81611a33565b9050919050565b60006020820190508181036000830152611d2d81611a56565b9050919050565b60006020820190508181036000830152611d4d81611a79565b9050919050565b60006020820190508181036000830152611d6d81611a9c565b9050919050565b60006020820190508181036000830152611d8d81611abf565b9050919050565b60006020820190508181036000830152611dad81611ae2565b9050919050565b60006020820190508181036000830152611dcd81611b05565b9050919050565b60006020820190508181036000830152611ded81611b28565b9050919050565b60006020820190508181036000830152611e0d81611b4b565b9050919050565b60006020820190508181036000830152611e2d81611b6e565b9050919050565b60006020820190508181036000830152611e4d81611b91565b9050919050565b60006020820190508181036000830152611e6d81611bb4565b9050919050565b60006020820190508181036000830152611e8d81611bd7565b9050919050565b60006020820190508181036000830152611ead81611bfa565b9050919050565b6000602082019050611ec96000830184611c1d565b92915050565b6000611ed9611eea565b9050611ee5828261210b565b919050565b6000604051905090565b600067ffffffffffffffff821115611f0f57611f0e612243565b5b611f1882612272565b9050602081019050919050565b600081519050919050565b600081519050919050565b600082825260208201905092915050565b600082825260208201905092915050565b600081905092915050565b6000611f738261208d565b9150611f7e8361208d565b9250827fffffffffffffffffffffffffffffffffffffffffffffffffffffffffffffffff03821115611fb357611fb26121b6565b5b828201905092915050565b6000611fc98261208d565b9150611fd48361208d565b925082611fe457611fe36121e5565b5b828204905092915050565b6000611ffa8261208d565b91506120058361208d565b925082821015612018576120176121b6565b5b828203905092915050565b600061202e8261206d565b9050919050565b60008115159050919050565b60007fffffffff0000000000000000000000000000000000000000000000000000000082169050919050565b600073ffffffffffffffffffffffffffffffffffffffff82169050919050565b6000819050919050565b82818337600083830152505050565b60005b838110156120c45780820151818401526020810190506120a9565b838111156120d3576000848401525b50505050565b600060028204905060018216806120f157607f821691505b6020821081141561210557612104612214565b5b50919050565b61211482612272565b810181811067ffffffffffffffff8211171561213357612132612243565b5b80604052505050565b60006121478261208d565b91507fffffffffffffffffffffffffffffffffffffffffffffffffffffffffffffffff82141561217a576121796121b6565b5b600182019050919050565b60006121908261208d565b915061219b8361208d565b9250826121ab576121aa6121e5565b5b828206905092915050565b7f4e487b7100000000000000000000000000000000000000000000000000000000600052601160045260246000fd5b7f4e487b7100000000000000000000000000000000000000000000000000000000600052601260045260246000fd5b7f4e487b7100000000000000000000000000000000000000000000000000000000600052602260045260246000fd5b7f4e487b7100000000000000000000000000000000000000000000000000000000600052604160045260246000fd5b6000601f19601f8301169050919050565b7f4552433732313a207472616e7366657220746f206e6f6e20455243373231526560008201527f63656976657220696d706c656d656e7465720000000000000000000000000000602082015250565b7f4552433732313a207472616e736665722066726f6d20696e636f72726563742060008201527f6f776e6572000000000000000000000000000000000000000000000000000000602082015250565b7f4552433732313a20746f6b656e20616c7265616479206d696e74656400000000600082015250565b7f4552433732313a207472616e7366657220746f20746865207a65726f2061646460008201527f7265737300000000000000000000000000000000000000000000000000000000602082015250565b7f4552433732313a20617070726f766520746f2063616c6c657200000000000000600082015250565b7f4552433732313a206f70657261746f7220717565727920666f72206e6f6e657860008201527f697374656e7420746f6b656e0000000000000000000000000000000000000000602082015250565b7f4552433732313a20617070726f76652063616c6c6572206973206e6f74206f7760008201527f6e6572206e6f7220617070726f76656420666f7220616c6c0000000000000000602082015250565b7f4552433732313a2062616c616e636520717565727920666f7220746865207a6560008201527f726f206164647265737300000000000000000000000000000000000000000000602082015250565b7f4552433732313a206f776e657220717565727920666f72206e6f6e657869737460008201527f656e7420746f6b656e0000000000000000000000000000000000000000000000602082015250565b7f4552433732313a206d696e7420746f20746865207a65726f2061646472657373600082015250565b7f4552433732313a20617070726f76656420717565727920666f72206e6f6e657860008201527f697374656e7420746f6b656e0000000000000000000000000000000000000000602082015250565b7f4552433732314d657461646174613a2055524920717565727920666f72206e6f60008201527f6e6578697374656e7420746f6b656e0000000000000000000000000000000000602082015250565b7f4552433732313a20617070726f76616c20746f2063757272656e74206f776e6560008201527f7200000000000000000000000000000000000000000000000000000000000000602082015250565b7f4552433732313a207472616e736665722063616c6c6572206973206e6f74206f60008201527f776e6572206e6f7220617070726f766564000000000000000000000000000000602082015250565b61266c81612023565b811461267757600080fd5b50565b61268381612035565b811461268e57600080fd5b50565b61269a81612041565b81146126a557600080fd5b50565b6126b18161208d565b81146126bc57600080fd5b5056fea264697066735822122046227b4fa3b1fbc4f8aeb5588a9bbf3f94e5198d6ab2978684cec224a20b74c564736f6c63430008040033",
  "linkReferences": {},
  "deployedLinkReferences": {}
}