{
  "_format": "hh-sol-artifact-1",
  "contractName": "MyERC20",
  "sourceName": "contracts/MyERC20.sol",
  "abi": [
    {
      "inputs": [],
      "stateMutability": "nonpayable",
      "type": "constructor"
    },
    {
      "anonymous": false,
      "inputs": [
        {
          "indexed": true,
          "internalType": "address",
          "name": "owner",
          "type": "address"
        },
        {
          "indexed": true,
          "internalType": "address",
          "name": "spender",
          "type": "address"
        },
        {
          "indexed": false,
          "internalType": "uint256",
          "name": "value",
          "type": "uint256"
        }
      ],
      "name": "Approval",
      "type": "event"
    },
    {
      "anonymous": false,
      "inputs": [
        {
          "indexed": true,
          "internalType": "address",
          "name": "from",
          "type": "address"
        },
        {
          "indexed": true,
          "internalType": "address",
          "name": "to",
          "type": "address"
        },
        {
          "indexed": false,
          "internalType": "uint256",
          "name": "value",
          "type": "uint256"
        }
      ],
      "name": "Transfer",
      "type": "event"
    },
    {
      "inputs": [
        {
          "internalType": "address",
          "name": "owner",
          "type": "address"
        },
        {
          "internalType": "address",
          "name": "spender",
          "type": "address"
        }
      ],
      "name": "allowance",
      "outputs": [
        {
          "internalType": "uint256",
          "name": "",
          "type": "uint256"
        }
      ],
      "stateMutability": "view",
      "type": "function"
    },
    {
      "inputs": [
        {
          "internalType": "address",
          "name": "spender",
          "type": "address"
        },
        {
          "internalType": "uint256",
          "name": "amount",
          "type": "uint256"
        }
      ],
      "name": "approve",
      "outputs": [
        {
          "internalType": "bool",
          "name": "",
          "type": "bool"
        }
      ],
      "stateMutability": "nonpayable",
      "type": "function"
    },
    {
      "inputs": [
        {
          "internalType": "address",
          "name": "account",
          "type": "address"
        }
      ],
      "name": "balanceOf",
      "outputs": [
        {
          "internalType": "uint256",
          "name": "",
          "type": "uint256"
        }
      ],
      "stateMutability": "view",
      "type": "function"
    },
    {
      "inputs": [],
      "name": "decimals",
      "outputs": [
        {
          "internalType": "uint8",
          "name": "",
          "type": "uint8"
        }
      ],
      "stateMutability": "view",
      "type": "function"
    },
    {
      "inputs": [
        {
          "internalType": "address",
          "name": "spender",
          "type": "address"
        },
        {
          "internalType": "uint256",
          "name": "subtractedValue",
          "type": "uint256"
        }
      ],
      "name": "decreaseAllowance",
      "outputs": [
        {
          "internalType": "bool",
          "name": "",
          "type": "bool"
        }
      ],
      "stateMutability": "nonpayable",
      "type": "function"
    },
    {
      "inputs": [
        {
          "internalType": "address",
          "name": "spender",
          "type": "address"
        },
        {
          "internalType": "uint256",
          "name": "addedValue",
          "type": "uint256"
        }
      ],
      "name": "increaseAllowance",
      "outputs": [
        {
          "internalType": "bool",
          "name": "",
          "type": "bool"
        }
      ],
      "stateMutability": "nonpayable",
      "type": "function"
    },
    {
      "inputs": [
        {
          "internalType": "uint256",
          "name": "amount",
          "type": "uint256"
        }
      ],
      "name": "mintToken",
      "outputs": [],
      "stateMutability": "nonpayable",
      "type": "function"
    },
    {
      "inputs": [],
      "name": "name",
      "outputs": [
        {
          "internalType": "string",
          "name": "",
          "type": "string"
        }
      ],
      "stateMutability": "view",
      "type": "function"
    },
    {
      "inputs": [],
      "name": "symbol",
      "outputs": [
        {
          "internalType": "string",
          "name": "",
          "type": "string"
        }
      ],
      "stateMutability": "view",
      "type": "function"
    },
    {
      "inputs": [],
      "name": "totalSupply",
      "outputs": [
        {
          "internalType": "uint256",
          "name": "",
          "type": "uint256"
        }
      ],
      "stateMutability": "view",
      "type": "function"
    },
    {
      "inputs": [
        {
          "internalType": "address",
          "name": "to",
          "type": "address"
        },
        {
          "internalType": "uint256",
          "name": "amount",
          "type": "uint256"
        }
      ],
      "name": "transfer",
      "outputs": [
        {
          "internalType": "bool",
          "name": "",
          "type": "bool"
        }
      ],
      "stateMutability": "nonpayable",
      "type": "function"
    },
    {
      "inputs": [
        {
          "internalType": "address",
          "name": "from",
          "type": "address"
        },
        {
          "internalType": "address",
          "name": "to",
          "type": "address"
        },
        {
          "internalType": "uint256",
          "name": "amount",
          "type": "uint256"
        }
      ],
      "name": "transferFrom",
      "outputs": [
        {
          "internalType": "bool",
          "name": "",
          "type": "bool"
        }
      ],
      "stateMutability": "nonpayable",
      "type": "function"
    }
  ],
  "bytecode": "0x60806040523480156200001157600080fd5b506040518060400160405280600781526020017f4d794552433230000000000000000000000000000000000000000000000000008152506040518060400160405280600781526020017f4d79455243323000000000000000000000000000000000000000000000000000815250816003908051906020019062000096929190620000b8565b508060049080519060200190620000af929190620000b8565b505050620001cd565b828054620000c69062000168565b90600052602060002090601f016020900481019282620000ea576000855562000136565b82601f106200010557805160ff191683800117855562000136565b8280016001018555821562000136579182015b828111156200013557825182559160200191906001019062000118565b5b50905062000145919062000149565b5090565b5b80821115620001645760008160009055506001016200014a565b5090565b600060028204905060018216806200018157607f821691505b602082108114156200019857620001976200019e565b5b50919050565b7f4e487b7100000000000000000000000000000000000000000000000000000000600052602260045260246000fd5b61156280620001dd6000396000f3fe608060405234801561001057600080fd5b50600436106100b45760003560e01c806370a082311161007157806370a08231146101a357806395d89b41146101d3578063a457c2d7146101f1578063a9059cbb14610221578063c634d03214610251578063dd62ed3e1461026d576100b4565b806306fdde03146100b9578063095ea7b3146100d757806318160ddd1461010757806323b872dd14610125578063313ce567146101555780633950935114610173575b600080fd5b6100c161029d565b6040516100ce9190610fdf565b60405180910390f35b6100f160048036038101906100ec9190610de1565b61032f565b6040516100fe9190610fc4565b60405180910390f35b61010f610352565b60405161011c9190611101565b60405180910390f35b61013f600480360381019061013a9190610d92565b61035c565b60405161014c9190610fc4565b60405180910390f35b61015d61038b565b60405161016a919061111c565b60405180910390f35b61018d60048036038101906101889190610de1565b610394565b60405161019a9190610fc4565b60405180910390f35b6101bd60048036038101906101b89190610d2d565b61043e565b6040516101ca9190611101565b60405180910390f35b6101db610486565b6040516101e89190610fdf565b60405180910390f35b61020b60048036038101906102069190610de1565b610518565b6040516102189190610fc4565b60405180910390f35b61023b60048036038101906102369190610de1565b610602565b6040516102489190610fc4565b60405180910390f35b61026b60048036038101906102669190610e1d565b610625565b005b61028760048036038101906102829190610d56565b610632565b6040516102949190611101565b60405180910390f35b6060600380546102ac90611231565b80601f01602080910402602001604051908101604052809291908181526020018280546102d890611231565b80156103255780601f106102fa57610100808354040283529160200191610325565b820191906000526020600020905b81548152906001019060200180831161030857829003601f168201915b5050505050905090565b60008061033a6106b9565b90506103478185856106c1565b600191505092915050565b6000600254905090565b6000806103676106b9565b905061037485828561088c565b61037f858585610918565b60019150509392505050565b60006012905090565b60008061039f6106b9565b9050610433818585600160008673ffffffffffffffffffffffffffffffffffffffff1673ffffffffffffffffffffffffffffffffffffffff16815260200190815260200160002060008973ffffffffffffffffffffffffffffffffffffffff1673ffffffffffffffffffffffffffffffffffffffff1681526020019081526020016000205461042e9190611153565b6106c1565b600191505092915050565b60008060008373ffffffffffffffffffffffffffffffffffffffff1673ffffffffffffffffffffffffffffffffffffffff168152602001908152602001600020549050919050565b60606004805461049590611231565b80601f01602080910402602001604051908101604052809291908181526020018280546104c190611231565b801561050e5780601f106104e35761010080835404028352916020019161050e565b820191906000526020600020905b8154815290600101906020018083116104f157829003601f168201915b5050505050905090565b6000806105236106b9565b90506000600160008373ffffffffffffffffffffffffffffffffffffffff1673ffffffffffffffffffffffffffffffffffffffff16815260200190815260200160002060008673ffffffffffffffffffffffffffffffffffffffff1673ffffffffffffffffffffffffffffffffffffffff168152602001908152602001600020549050838110156105e9576040517f08c379a00000000000000000000000000000000000000000000000000000000081526004016105e0906110c1565b60405180910390fd5b6105f682868684036106c1565b60019250505092915050565b60008061060d6106b9565b905061061a818585610918565b600191505092915050565b61062f3382610b99565b50565b6000600160008473ffffffffffffffffffffffffffffffffffffffff1673ffffffffffffffffffffffffffffffffffffffff16815260200190815260200160002060008373ffffffffffffffffffffffffffffffffffffffff1673ffffffffffffffffffffffffffffffffffffffff16815260200190815260200160002054905092915050565b600033905090565b600073ffffffffffffffffffffffffffffffffffffffff168373ffffffffffffffffffffffffffffffffffffffff161415610731576040517f08c379a0000000000000000000000000000000000000000000000000000000008152600401610728906110a1565b60405180910390fd5b600073ffffffffffffffffffffffffffffffffffffffff168273ffffffffffffffffffffffffffffffffffffffff1614156107a1576040517f08c379a000000000000000000000000000000000000000000000000000000000815260040161079890611021565b60405180910390fd5b80600160008573ffffffffffffffffffffffffffffffffffffffff1673ffffffffffffffffffffffffffffffffffffffff16815260200190815260200160002060008473ffffffffffffffffffffffffffffffffffffffff1673ffffffffffffffffffffffffffffffffffffffff168152602001908152602001600020819055508173ffffffffffffffffffffffffffffffffffffffff168373ffffffffffffffffffffffffffffffffffffffff167f8c5be1e5ebec7d5bd14f71427d1e84f3dd0314c0f7b2291e5b200ac8c7c3b9258360405161087f9190611101565b60405180910390a3505050565b60006108988484610632565b90507fffffffffffffffffffffffffffffffffffffffffffffffffffffffffffffffff81146109125781811015610904576040517f08c379a00000000000000000000000000000000000000000000000000000000081526004016108fb90611041565b60405180910390fd5b61091184848484036106c1565b5b50505050565b600073ffffffffffffffffffffffffffffffffffffffff168373ffffffffffffffffffffffffffffffffffffffff161415610988576040517f08c379a000000000000000000000000000000000000000000000000000000000815260040161097f90611081565b60405180910390fd5b600073ffffffffffffffffffffffffffffffffffffffff168273ffffffffffffffffffffffffffffffffffffffff1614156109f8576040517f08c379a00000000000000000000000000000000000000000000000000000000081526004016109ef90611001565b60405180910390fd5b610a03838383610cf9565b60008060008573ffffffffffffffffffffffffffffffffffffffff1673ffffffffffffffffffffffffffffffffffffffff16815260200190815260200160002054905081811015610a89576040517f08c379a0000000000000000000000000000000000000000000000000000000008152600401610a8090611061565b60405180910390fd5b8181036000808673ffffffffffffffffffffffffffffffffffffffff1673ffffffffffffffffffffffffffffffffffffffff16815260200190815260200160002081905550816000808573ffffffffffffffffffffffffffffffffffffffff1673ffffffffffffffffffffffffffffffffffffffff1681526020019081526020016000206000828254610b1c9190611153565b925050819055508273ffffffffffffffffffffffffffffffffffffffff168473ffffffffffffffffffffffffffffffffffffffff167fddf252ad1be2c89b69c2b068fc378daa952ba7f163c4a11628f55a4df523b3ef84604051610b809190611101565b60405180910390a3610b93848484610cfe565b50505050565b600073ffffffffffffffffffffffffffffffffffffffff168273ffffffffffffffffffffffffffffffffffffffff161415610c09576040517f08c379a0000000000000000000000000000000000000000000000000000000008152600401610c00906110e1565b60405180910390fd5b610c1560008383610cf9565b8060026000828254610c279190611153565b92505081905550806000808473ffffffffffffffffffffffffffffffffffffffff1673ffffffffffffffffffffffffffffffffffffffff1681526020019081526020016000206000828254610c7c9190611153565b925050819055508173ffffffffffffffffffffffffffffffffffffffff16600073ffffffffffffffffffffffffffffffffffffffff167fddf252ad1be2c89b69c2b068fc378daa952ba7f163c4a11628f55a4df523b3ef83604051610ce19190611101565b60405180910390a3610cf560008383610cfe565b5050565b505050565b505050565b600081359050610d12816114fe565b92915050565b600081359050610d2781611515565b92915050565b600060208284031215610d3f57600080fd5b6000610d4d84828501610d03565b91505092915050565b60008060408385031215610d6957600080fd5b6000610d7785828601610d03565b9250506020610d8885828601610d03565b9150509250929050565b600080600060608486031215610da757600080fd5b6000610db586828701610d03565b9350506020610dc686828701610d03565b9250506040610dd786828701610d18565b9150509250925092565b60008060408385031215610df457600080fd5b6000610e0285828601610d03565b9250506020610e1385828601610d18565b9150509250929050565b600060208284031215610e2f57600080fd5b6000610e3d84828501610d18565b91505092915050565b610e4f816111bb565b82525050565b6000610e6082611137565b610e6a8185611142565b9350610e7a8185602086016111fe565b610e83816112c1565b840191505092915050565b6000610e9b602383611142565b9150610ea6826112d2565b604082019050919050565b6000610ebe602283611142565b9150610ec982611321565b604082019050919050565b6000610ee1601d83611142565b9150610eec82611370565b602082019050919050565b6000610f04602683611142565b9150610f0f82611399565b604082019050919050565b6000610f27602583611142565b9150610f32826113e8565b604082019050919050565b6000610f4a602483611142565b9150610f5582611437565b604082019050919050565b6000610f6d602583611142565b9150610f7882611486565b604082019050919050565b6000610f90601f83611142565b9150610f9b826114d5565b602082019050919050565b610faf816111e7565b82525050565b610fbe816111f1565b82525050565b6000602082019050610fd96000830184610e46565b92915050565b60006020820190508181036000830152610ff98184610e55565b905092915050565b6000602082019050818103600083015261101a81610e8e565b9050919050565b6000602082019050818103600083015261103a81610eb1565b9050919050565b6000602082019050818103600083015261105a81610ed4565b9050919050565b6000602082019050818103600083015261107a81610ef7565b9050919050565b6000602082019050818103600083015261109a81610f1a565b9050919050565b600060208201905081810360008301526110ba81610f3d565b9050919050565b600060208201905081810360008301526110da81610f60565b9050919050565b600060208201905081810360008301526110fa81610f83565b9050919050565b60006020820190506111166000830184610fa6565b92915050565b60006020820190506111316000830184610fb5565b92915050565b600081519050919050565b600082825260208201905092915050565b600061115e826111e7565b9150611169836111e7565b9250827fffffffffffffffffffffffffffffffffffffffffffffffffffffffffffffffff0382111561119e5761119d611263565b5b828201905092915050565b60006111b4826111c7565b9050919050565b60008115159050919050565b600073ffffffffffffffffffffffffffffffffffffffff82169050919050565b6000819050919050565b600060ff82169050919050565b60005b8381101561121c578082015181840152602081019050611201565b8381111561122b576000848401525b50505050565b6000600282049050600182168061124957607f821691505b6020821081141561125d5761125c611292565b5b50919050565b7f4e487b7100000000000000000000000000000000000000000000000000000000600052601160045260246000fd5b7f4e487b7100000000000000000000000000000000000000000000000000000000600052602260045260246000fd5b6000601f19601f8301169050919050565b7f45524332303a207472616e7366657220746f20746865207a65726f206164647260008201527f6573730000000000000000000000000000000000000000000000000000000000602082015250565b7f45524332303a20617070726f766520746f20746865207a65726f20616464726560008201527f7373000000000000000000000000000000000000000000000000000000000000602082015250565b7f45524332303a20696e73756666696369656e7420616c6c6f77616e6365000000600082015250565b7f45524332303a207472616e7366657220616d6f756e742065786365656473206260008201527f616c616e63650000000000000000000000000000000000000000000000000000602082015250565b7f45524332303a207472616e736665722066726f6d20746865207a65726f20616460008201527f6472657373000000000000000000000000000000000000000000000000000000602082015250565b7f45524332303a20617070726f76652066726f6d20746865207a65726f2061646460008201527f7265737300000000000000000000000000000000000000000000000000000000602082015250565b7f45524332303a2064656372656173656420616c6c6f77616e63652062656c6f7760008201527f207a65726f000000000000000000000000000000000000000000000000000000602082015250565b7f45524332303a206d696e7420746f20746865207a65726f206164647265737300600082015250565b611507816111a9565b811461151257600080fd5b50565b61151e816111e7565b811461152957600080fd5b5056fea2646970667358221220f948b63e44be5d3bdbc69dd0ebb8110e96775c7157d36938576cc83f497f6f9664736f6c63430008040033",
  "linkReferences": {},
  "deployedLinkReferences": {}
}